:100000007CC1000099C1000097C1000095C10000AB
:1000100093C1000091C100008FC100008DC100009C
:100020008BC100000C94E60C87C100000C94B30C4B
:1000300083C1000081C100007FC100007DC10000BC
:100040007BC1000079C1000077C1000075C10000CC
:1000500073C1000071C100006FC100006DC10000DC
:100060006BC1000069C1000067C1000065C10000EC
:1000700063C1000062C100005FC100005DC10000FB
:100080005BC1000059C1000057C1000055C100000C
:10009000A1C10000BEC100004FC100004DC1000061
:1000A0004BC1000049C1000047C1000045C100002C
:1000B00043C1000041C100003FC10000C7C10000B2
:1000C0003BC1000039C1000037C1000035C100004C
:1000D00033C1000031C100002FC100002DC100005C
:1000E0002BC10000466F6C6C6F7765722070617277
:1000F000616D65746572732073657400466F6C6C16
:100100006F77657220726573657400466F6C6C6FF3
:100110007765722070617573656400466F6C6C6FF3
:100120007765722073746172746564004E6F20701D
:1001300061746820617661696C61626C6500506110
:100140007468206F6620257520706F696E74732C3B
:1001500020312E2825692C25692920322E28256951
:100160002C256929202E2E2E00466F6C6C6F77652A
:10017000723A206F7574206F66206D656D6F7279AD
:10018000206F7220706174682068617320746F6FD3
:100190002066657720706F696E747300456E636FBB
:1001A0006465722063616C6962726174696F6E204C
:1001B00073746F7070656400456E636F6465722060
:1001C00063616C6962726174696F6E2073746172CD
:1001D000746564202D2064726976696E6720336DC2
:1001E000207769746820696E6372656173696E67F0
:1001F00020737065656400496E6672617265642083
:1002000053656E736F72203320636F6E74696E7501
:100210006F7573206F75747075742073746F707060
:10022000656400496E6672617265642053656E7321
:100230006F72203320636F6E74696E756F757320F3
:100240006F757470757420737461727465640045A1
:100250006E636F6465722063616C69627261746958
:100260006F6E20636F6D706C657465202D20336D2B
:1002700020666F7277617264202B20333630C2B0F3
:1002800020726F746174696F6E202D2064617461D7
:1002900020706C6F747465640044617461207365D0
:1002A0006E742C206372656174696E6720706C6F68
:1002B00074732E2E2E0053656E64696E6720636121
:1002C0006C6962726174696F6E206461746120741C
:1002D0006F2048575043532E2E2E00537461727472
:1002E000696E6720726F746174696F6E20706861E7
:1002F000736500426F6F7465640011241FBECFEFF9
:10030000D1E2DEBFCDBF1EBA1EE0A0E0B2E0EAE15E
:10031000FBE200E00BBF02C007900D92A039B107CD
:10032000D9F72BE1A0E9BEE001C01D92A638B207C3
:10033000E1F783D70C94721522C62F922FB67F93C4
:100340008F939F93CF93DF93EF93FF93C091B91255
:10035000D091BA12FE01E65FFF4F82E1ED3EF80751
:10036000B1F1818180937C00828180937B00F09346
:10037000BA12E093B912E881E395E070E883FF27B1
:10038000EE0FFF1FEC0FFD1F708590917800908796
:10039000791B8185909179009187890B982F990F0E
:1003A000990BEC81E71BEC83ED81E80BED83EE818B
:1003B000E90BEE83EB81EF77EB83FF91EF91DF9118
:1003C000CF919F918F917F912FBE2F901895EBEB3E
:1003D000F2E1C7CF2F922FB62F93EF93FF93209187
:1003E000CE00E0916D14E395EF77F0916E14FE1757
:1003F00061F0E0936D14F0E0E351FC4E2083FF9137
:10040000EF912F912FBE2F90189521E0209371141A
:10041000F6CF2F922FB6EF93FF93F0916F14E091E8
:100420007014FE1779F0E395EF7FE0937014F0E01D
:10043000E351FD4EE081E093CE00FF91EF912FBE9E
:100440002F901895E8E9E093C900F7CF2F922FB6C7
:10045000CF93DF93EF93FF93FF27C0918E14D0913A
:100460008F142196C0938E14D0938F14C091901442
:10047000D0919114CF1FDF1FC0939014D09391148B
:10048000F09904C0F09AEFE0F2E003C0F098EDE0DC
:10049000F2E0C081D1812296D183C083C0FD05C026
:1004A000F29B03C0EFECE0937A00FF91EF91DF91B4
:1004B000CF912FBE2F901895EF92FF920F931F931D
:1004C000CF93DF93F090950EC091970ED091980E38
:1004D0008E010756114FE090960E11D2E11479F07B
:1004E000F80180832196C115F4E0DF0749F1F82671
:1004F00018D2811509F43DC00F5F1F4F00D2813122
:1005000009F44BC08B3261F7C430D10508F44AC0FE
:100510008091990E90919A0E8927E0919B0E2E2F33
:1005200022952F70982F92959F708F70892728178A
:1005300009F43EC08091940E84608093940E05C0AF
:100540008091940E81608093940EEBD1811509F413
:100550003FC0D5D18131E1F08B3221F18093990EEA
:1005600009E91EE0F12CC1E0D0E0F826DAD18111D2
:10057000C3CFF092950EC093970ED093980E8093B0
:10058000960EDF91CF911F910F91FF90EF900895FC
:1005900009E91EE0C0E0D0E0F12CC3D18115B1F033
:1005A000AED19ECF8091940E82608093940ECDCF79
:1005B0008091990E90919A0E2497C817D90761F0EF
:1005C0008091940E88608093940EBFCF81E0D1CF4C
:1005D000C0E0D0E0F12CCDCFF11010C0EF70F0E012
:1005E000EE0FFF1FE756FD4E0190F081E02D309792
:1005F00059F0BE018CE99EE00995A7CF8091940E39
:1006000080618093940EA1CF8091940E806280933C
:10061000940E9BCFE9E9F2E180E2DF011D928A9519
:10062000E9F70895E82FF0E0EE0FFF1FE756FD4EC3
:10063000608371830895EF92FF920F931F93CF937E
:10064000DF9300D000D0CDB7DEB7182F69837A834F
:100650007A01413109F454C04B3209F451C08E2D56
:100660003CD18F2D813109F453C08B3209F450C035
:100670008F2D33D18F2D8E258C83807F9C819295F9
:10068000907F98271F70912B9B83913109F446C06E
:100690009B3209F443C08B8120D1EC81FB81EF2791
:1006A000EB83E114F104C9F009811A81E00EF11E17
:1006B00009C0898112D19B81E9819E279B83E01625
:1006C000F10659F0F80181918F018983813111F090
:1006D0008B3279F781E101D1ECCFFB81F131D9F097
:1006E000FB32C9F08B81F9D08BE20F900F900F9005
:1006F0000F90DF91CF911F910F91FF90EF90EDC080
:1007000081E1EBD08E2DE9D08F2D813109F0ADCF75
:1007100081E1E3D0ADCF81E1E0D0E4CF81E1DDD074
:10072000BACF0F931F93CF93DF93CDB7DEB782E09D
:1007300091E00E9428118C01009709F12F81FC01A2
:100740002193CF019E01265F3F4F4885598561E087
:1007500071E00E944E12AC01813091406CF44F5F09
:100760005F4FB80180E067DFC8010E94BA11DF91D6
:10077000CF911F910F91089540E051E0F0CF80910B
:10078000940E80648093940EF2CF0F931F93CF93B7
:10079000DF93CDB7DEB782E091E00E9428118C0193
:1007A000009709F12F81FC012193CF019E01265F63
:1007B0003F4F4885598561E071E00E948712AC0186
:1007C000813091406CF44F5F5F4FB80180E033DFC0
:1007D000C8010E94BA11DF91CF911F910F91089526
:1007E00040E051E0F0CF8091940E80648093940EAD
:1007F000F2CF97D0811101C008955ECECF93DF93E1
:10080000811539F09FB7F89485B7806885BF85BF9B
:100810009FBF809164008E7F8093640010927A0065
:1008200080B7806880BFEBEBF2E182E3DF011D92CD
:100830008A95E9F7E093B912F093BA1281E08093B8
:10084000C81282E08093D21283E08093DC1284E0AD
:100850008093E612ADEEB2E130E040E061E070E09E
:1008600058E02381822F8F708383822F8770982F87
:1008700090649183EB0101C0CC0F8A95EAF723FFC6
:1008800016C03C2B52833A96AE17BF0751F74093E0
:100890007E0030937D008091BC1280937C0080911B
:1008A000BD1280937B00F29ADF91CF910CC34C2B49
:1008B000EACF90E0FC01EE0FFF1FEE0FFF1FE80FE5
:1008C000F91FEE0FFF1FE554FD4E2FB7F8948481FA
:1008D0009581A681B7812FBF089520916F142F5F56
:1008E000909170149217E1F3E22FF0E0E351FD4E86
:1008F000808320936F1488EB8093C90008959091B2
:100900006D1480916E149817D1F390916E149F5FBF
:100910009F77E92FF0E0E351FC4E808190936E14B5
:10092000089520916D1490916E1481E0291308951B
:1009300080E00895E5E6F0E080818E7F808310926C
:10094000CD001092CC0080E48093C80088E98093A9
:10095000C90086E08093CA000895CF93DF93E5E64F
:10096000F0E08081877E8083A1E9B0E01C92E1EA1B
:10097000108282EF809390008093A00010929200EA
:100980001092A2004FB7F894109295001092940024
:100990001092A5001092A4008FEF9FE19093970012
:1009A000809396009093A7008093A600909399005F
:1009B0008093980090939B0080939A009093A90055
:1009C0008093A8009093AB008093AA008DB18861BA
:1009D0008DB921E031E0E90188818861888381E86F
:1009E00083BD81E18C93808313BC4FBFDF91CF9196
:1009F000089597FD18C09F710FB6F8941092990052
:100A00001092980090939B0080939A0077FD1BC0F2
:100A10007F711092A9001092A8007093AB006093B0
:100A2000AA000FBE08959195819591099F710FB607
:100A3000F89410929B0010929A00909399008093E2
:100A4000980077FFE5CF7195619571097F711092DC
:100A5000AB001092AA007093A9006093A8000FBE8B
:100A600008952FB7F8948FEF9FE1909399008093AA
:100A7000980090939B0080939A009093A900809394
:100A8000A8009093AB008093AA002FBF0895CF9346
:100A9000DF9300D000D000D0CDB7DEB78D839E832A
:100AA000DC018D919D910D90BC91A02D89839A833D
:100AB000AB83BC8340E050E09A01BC01CD010E94B1
:100AC000940F181664F489819A81AB81BC8180935C
:100AD000090290930A02A0930B02B0930C02AD811D
:100AE000BE8114968C918093080284EE90E09F93CF
:100AF0008F9382E08F9349DE0F900F900F900F90AD
:100B00000F900F900F900F900F90DF91CF9108955D
:100B1000EF92FF920F931F93CF93DF93CDB7DEB782
:100B20002E970FB6F894DEBF0FBECDBF89836D83BD
:100B30007E83823008F4C0C0109273148FEF9FEF51
:100B400080930602909307021092721410927D1403
:100B5000109278141092791410927A1410927B14D7
:100B600010927C148091741490917514009711F078
:100B70000E94BA119981892F90E089871A8601967F
:100B80007C01EE0CFF1CEE0CFF1CC7010E9428111B
:100B90008C018093741410937514009709F48CC021
:100BA000A7016D817E810E944512F981F093731433
:100BB00089859A858250904C880F991F880F991FBC
:100BC000800F911F8D879E87FC0104811581E6802F
:100BD000F78080819181B801681B790B872F880F7E
:100BE000880B982F0E94AA0E69837A838B839C833B
:100BF000ED85FE8582819381B701681B790B872F74
:100C0000880F880B982F0E94AA0E6D837E838F8396
:100C100098879B01AC0169817A818B819C810E94BC
:100C2000A10F69877A878B879C8720E030E040E2BC
:100C300051E46091090270910A0280910B02909137
:100C40000C020E942F1029853A854B855C85E7D7D9
:100C500069877A878B879C879B01AC0169817A8140
:100C60008B819C810E942F100E94770E600F711F54
:100C7000ED85FE856087718729853A854B855C8582
:100C80006D817E818F8198850E942F100E94770E42
:100C90006E0D7F1DED85FE856287738781E02E9640
:100CA0000FB6F894DEBF0FBECDBFDF91CF911F917D
:100CB0000F91FF90EF90089580E0F1CFCF93DF93F5
:100CC000EC018881813060F189F0823009F464C0E0
:100CD000833009F46DC0E0917614F0917714309769
:100CE000E1F069818881DF91CF910994909173142B
:100CF000911509F44EC080937D148BE191E09F9390
:100D00008F9382E08F9341DD0F900F900F90E091D1
:100D10007614F0917714309721F7DF91CF910895F1
:100D2000BE016E5F7F4F8981F3DE81110AC089E6C3
:100D300091E09F938F931F9228DD0F900F900F905B
:100D4000CACFE0917414F091751487818F938681D6
:100D50008F9385818F9384818F9383818F938281F9
:100D60008F9381818F9380818F93809173141F92D1
:100D70008F938EE391E09F938F9382E08F9305DDB5
:100D80008DB79EB70D960FB6F8949EBF0FBE8DBF60
:100D9000A2CF8CE291E0CDCF10927D142BE031E018
:100DA0003F932F938F93F1DC0F900F900F9093CF81
:100DB0008FEF9FEF809306029093070210927214B8
:100DC00010927D14109278141092791410927A1463
:100DD00010927B1410927C148CEF90E090CF6EE513
:100DE00076E083E01FDC67E475E084E01BCC0F93C2
:100DF0001F93CF93DF9300D000D000D00F92CDB7D8
:100E0000DEB78E839F8369834A835B832C833D8314
:100E100002960E9428118C01892B91F12E813F812D
:100E20002F5F3F4F2E833F8399819F5FF8019193FE
:100E30002C813D814A815B816E817F81CF010E943F
:100E40004E122E813F8182179307A0F04E815F8161
:100E5000B80187E0F0DBC8010E94BA1181E0279653
:100E60000FB6F894DEBF0FBECDBFDF91CF911F91BB
:100E70000F9108959C012F5F3F4F2E833F83E6CF54
:100E800080E0EDCFCF93DF93CDB7DEB79E01285F33
:100E90003F4F4E815F816D8180E092E0A8DFDF915E
:100EA000CF910895CF93DF930F92CDB7DEB719821C
:100EB00041E050E0BE016F5F7F4F87E0BCDB0F90E9
:100EC000DF91CF910895F1991FC0F19A809165004B
:100ED0008F7D80936500109221018FB7F894109256
:100EE00025011092240128EE33E03093290120934C
:100EF00028018FBF109222011092200182E080937E
:100F000073008AE0809321010895EFB7F89420914F
:100F100024013091250140918E1450918F146091DD
:100F2000901470919114EFBFFC0140835183628350
:100F30007383248335830895CF93DF93FC01EB0102
:100F4000288139814A815B8180819181A281B3812D
:100F5000281B390B4A0B5B0BA8EEB3E0DFD52C81C5
:100F60003D8144815581241B350B032E000C000864
:100F7000620F731F801D901DDF91CF9108950F9216
:100F80000FB60F92179A169890E42FEF30E782E091
:100F9000215030408040E1F700C0000082B180580D
:100FA00082B982B1892782B9F0CF08957F936F9378
:100FB0008DE192E09F938F9383E08F93B2DB0F904C
:100FC0000F900F900F900F9008958F929F92AF9275
:100FD000BF92CF92DF92EF92FF920F931F93CF9326
:100FE000DF93DC01EC91EA3098F4F0E0ED57FA4E33
:100FF0008CC51092761B35DD80E0AFD48CE991E092
:101000009F938F9382E08F93C0DB0F900F900F9090
:10101000DF91CF911F910F91FF90EF90DF90CF90D4
:10102000BF90AF909F908F90089581E05FD5182F6B
:1010300082E05CD5082F81E02DD5EC0182E02AD535
:101040001F920F939F938F931F921F93DF93CF93C2
:1010500089E594E09F938F9382E08F9362DB2DB7B5
:101060003EB7255F3F4F0FB6F8943EBF0FBE2DBF72
:10107000CFCFDF91CF911F910F91FF90EF90DF9035
:10108000CF90BF90AF909F908F90EBCC68E474EFBF
:1010900088EB9BE0DF91CF911F910F91FF90EF9034
:1010A000DF90CF90BF90AF909F908F90A2CC68EBD5
:1010B0007BE0EECF83E0DF91CF911F910F91FF9006
:1010C000EF90DF90CF90BF90AF909F908F9045C4EE
:1010D000E9DEC1E0D0E00FE212E080E0EADBF82ECA
:1010E000E92E81E0E6DBD82EC92E82E0E2DBB82EC5
:1010F000A92E83E0DEDB982E892E84E0DADB9F9335
:101100008F938F929F92AF92BF92CF92DF92EF9286
:10111000FF92DF93CF931F930F931F92B3DE3FE7AE
:1011200088E391E0315080409040E1F700C000003A
:101130002196ADB7BEB71F960FB6F894BEBF0FBECF
:10114000ADBFC333D10549F685E592E09F938F93F8
:101150001F9298DE8DE592E09F938F931F9292DE0F
:101160008BEB92E09F938F931F928CDE89E193E04B
:101170009F938F931F9286DE87E793E09F938F93D1
:101180001F9280DE85ED93E09F938F931F927ADE0E
:1011900083E394E09F938F9381E08F9373DE2DB769
:1011A0003EB72B5E3F4F0FB6F8943EBF0FBE2DBF2C
:1011B0002FCF81E08093771B83E292E021CF1092C2
:1011C000771B87EF91E01CCF81E07BD482E079D45C
:1011D00069DE81E08093761B1092751B1092741B60
:1011E00084EF91E0E0E8F9E1DF019C011D922150DC
:1011F0003040E1F7ECE8F7E1DF019C011D9221505E
:101200003040E1F7E8E9F5E1DF019C011D92215052
:101210003040E1F7EEE9F4E18AEFDF011D928A95B3
:10122000E9F784E09AD368EE73E0CB01E2DB88EB68
:1012300091E0E6CE089508950895CDB7DEB768979A
:101240000FB6F894DEBF0FBECDBF8FEE8093640063
:101250008FE38093650081B1806C81B96BDBDAD953
:1012600066ED77E080E0DED965ED77E081E0DAD900
:101270006BE179E082E0D6D9B2DD6CE179E085E01E
:10128000D1D965EE77E086E0CDD96AE179E088E0F2
:10129000C9D963DB81E0B2DA63D3CED3789483EF2C
:1012A00092E09F938F9382E08F936FDA0F900F906D
:1012B0000F9056C0F09905C080910D0290910E02DA
:1012C00004C080910F0290911002209198143091E7
:1012D0009914FC01E21BF30BE639F10508F0ACC0F0
:1012E000F09905C080910D0290910E0204C080918A
:1012F0000F02909110022091941430919514AC013A
:10130000421B530B4436510540F080939414909344
:1013100095148091771B8111E3C0F09905C08091ED
:101320000D0290910E0204C080910F029091100264
:101330002091921430919314AC01421B530B44360C
:10134000510568F080939214909393148091761BCA
:10135000811529F080917F1B843009F4D2C049DACD
:10136000ECD2F09905C080910D0290910E0204C05C
:1013700080910F029091100220919C1430919D1445
:10138000AC01421B530B9A01243F314040F0809343
:101390009C1490939D1482B190E4892782B9F099AE
:1013A00005C080910D0290910E0204C080910F0241
:1013B0009091100220919A1430919B14FC01E21B31
:1013C000F30B9F012C32314008F474CF80939A14B0
:1013D00090939B1422E029831A8281E05BD38B8354
:1013E0009C8382E057D38D839E8380E062DA8F8373
:1013F000988781E05EDA89879A8782E05ADA8B875C
:101400009C8783E056DA8D879E8784E052DA8F8747
:10141000988B44E150E0498B1A8A84E19EEAA9E264
:10142000B2E48B8B9C8BAD8BBE8B46E1BE016F5FB4
:101430007F4F81E000D93ECF809398149093991408
:101440000091961410919714B801812F880F880B82
:10145000982F80D42CE739ED40E25FE300D62AE9EB
:1014600039E949E15EE3FBD56B017C01D5D320E08E
:1014700030E048E453E4F3D5609311027093120214
:101480008093130290931402B601C7014BD620E05B
:1014900030E048E453E4E3D56093150270931602FC
:1014A00080931702909318022BED3FE049EC5FE325
:1014B000B601C7014DD36093190270931A0280934D
:1014C0001B0290931C020F5F1F4F00939614109302
:1014D00097144CE050E061E172E082E0ACD800CFBC
:1014E00082E0E7D99F938F9380E994E09F938F9355
:1014F000F2E0FF9316D90F900F900F900F900F907E
:101500000CCF81E0C7D2F82EE92E82E0C3D2D82ECC
:10151000C92E0091751B8091741B811135C006394D
:1015200008F05FC054E1509F8001112408511C4F06
:10153000B801C8015EDA8091751B482F50E09A010E
:10154000220F331FF901E058F64EF082E182F901D3
:10155000E457F84ED082C18228563A4EF9010083F2
:10156000118342565B4E91E0FA019083FDEC8F9F10
:10157000902D112490FB979597F99A3108F45AC051
:101580008F5F8093751BEBCE043608F075C0802FFB
:1015900090E08A569F4F9C01220F331FF901E058BB
:1015A000F64EF082E182F901E457F84ED082C18212
:1015B00028563A4E48EB5BE0F9014083518382564E
:1015C0009B4E22E0FC0120833DEC039F802D1124E3
:1015D00080FB879587F98A31C8F00F5F0093751BF0
:1015E000BECE81E08093741B1092751B68E474EF8B
:1015F00088EB9BE0FED92BED32E03F932F9352E036
:101600005F93C3D80F900F900F90A9CECF92DF9227
:10161000EF92FF921F920F9341EF54E05F934F932D
:101620002F937FD80091751B0FB6F894DEBF0FBEC5
:10163000CDBFD3CF81E05AD2B82E82E057D21F92CD
:101640008F931F92BF921F930F93CF92DF92EF92CF
:10165000FF928091751B1F928F9326EA34E03F938F
:101660002F9352E05F935DD88091751B0FB6F8946D
:10167000DEBF0FBECDBF84CF1092761B1092741BBD
:10168000F0D980E06AD186EB92E09F938F9382E05D
:101690008F937BD807DC8CE195E09F938F931F920B
:1016A000F1DB8EE395E09F938F931F92EBDB8BE54D
:1016B00095E09F938F931F92E5DB86E795E09F93DC
:1016C0008F931F92DFDB8CE8A82E87E1B82E90E87D
:1016D000C92E99E1D92E28E9E22E25E1F22E2EE934
:1016E00034E12F8B388F0FB6F894DEBF0FBECDBF1D
:1016F00001E010E03DE8832E35E0932E40EB642EB0
:1017000045E0742E56EC452E55E0552E6AED262EFA
:1017100065E0362EF50120813181F2E0AF0EB11C7B
:10172000F60180819181F2E0CF0ED11C3F932F937F
:101730009F938F931F930F939F928F921F92A2DB81
:10174000C80101979F938F931F930F937F926F927E
:101750001F9298DBF70180819181F2E0EF0EF11C7E
:101760009F938F931F930F935F924F921F928ADBE9
:10177000EF89F88D8191EF8BF88F1F928F931F93D4
:101780000F933F922F921F927DDB0F5F1F4F0FB67B
:10179000F894DEBF0FBECDBF0B3F110509F0BACFE5
:1017A00089E992E09F938F9312E01F930E94C503F3
:1017B0008AEE95E09F938F931F9264DB8DE296E013
:1017C0009F938F931F925EDB80E796E09F938F93AA
:1017D0001F9258DB8DEA96E09F938F931F9252DB06
:1017E00081E097E09F938F931F924CDB80E297E01C
:1017F0009F938F931F9246DB82E797E09F938F938F
:101800001F9240DB82EC97E09F938F931F923ADB0D
:1018100085E198E09F938F931F9234DB8BE598E0EE
:101820009F938F931F922EDB0FB6F894DEBF0FBEEF
:10183000CDBF81EA98E09F938F931F9223DB8AEFBD
:1018400098E09F938F931F921DDB84E499E09F9310
:101850008F931F9217DB81E999E09F938F931F92DB
:1018600011DB85E592E09F938F931F920BDB8CEE4B
:1018700099E09F938F931F9205DB8DE09BE09F93F0
:101880008F931F92FFDA89EC9BE09F938F931F92B7
:10189000F9DA82E59CE09F938F931F92F3DA8DED46
:1018A0009CE09F938F931F92EDDA86EE9CE09F93CE
:1018B0008F9381E08F93E6DA0FB6F894DEBF0FBE08
:1018C000CDBF8FE492E09F938F931F930E94C50337
:1018D0000F900F900F9043CDCF93DF9300D000D0A7
:1018E00000D0CDB7DEB78091781B8115D9F0CE013D
:1018F00001960BDBBE016F5F7F4F89E79BE11CDB2D
:1019000061347B448C44910520F010927F1B10922F
:10191000781B0F900F900F900F900F900F90DF910A
:10192000CF91089589E79BE1F0DA68EB7BE0CB018A
:1019300060D881E08093781BDACF80917F1B813063
:1019400031F0833019F0811107C08BC8C5CF68E42E
:1019500074EF88EB9BE04DC8089580937F1B08953A
:1019600080EC8EB908951F921FB61F9211242F93F9
:101970002BB72F933F938F939F93EF93FF9389B14F
:101980008370E091811BEE0FEE0FE82BF0E0E05842
:10199000F14F9081911561F02091841B3091851B4E
:1019A000290F311D97FD3A953093851B2093841B99
:1019B0008093811BFF91EF919F918F913F912F9188
:1019C0002BBF2F911F901FBE1F9018951F921FB6FF
:1019D0001F9211242F932BB72F933F938F939F9395
:1019E000EF93FF9383B18295869586958370E091FE
:1019F000801BEE0FEE0FE82BF0E0E058F14F9081E6
:101A0000911561F02091821B3091831B290F311DAC
:101A100097FD3A953093831B2093821B8093801B04
:101A2000FF91EF919F918F913F912F912BBF2F911C
:101A30001F901FBE1F9018958AB18C7F8AB98BB1F9
:101A400083608BB984B18F7384B985B1806C85B99B
:101A500089B183708093811B83B190E0082E892F18
:101A6000000C881F990B000C881F991F8093801B06
:101A700083E080936D0080EC80936B0085E0809321
:101A800068001092851B1092841B1092831B109289
:101A9000821B0895813069F0823019F080E090E077
:101AA00008952FB7F8948091821B9091831B2FBFCC
:101AB00008952FB7F8948091841B9091851B2FBFB8
:101AC0000895813059F0823009F008958FB7F89465
:101AD0001092831B1092821B8FBF08958FB7F894CA
:101AE0001092851B1092841B8FBF0895813021F0C6
:101AF000823029F080E0089589B18370089583B120
:101B000082958695869583700895EE0FFF1F0024B9
:101B1000001C0BBE0790F691E02D099409D0A59FFB
:101B2000900DB49F900DA49F800D911D11240895D8
:101B3000A29FB001B39FC001A39F700D811D11240E
:101B4000911DB29F700D811D1124911D0895505853
:101B5000BB27AA270ED09CC165D130F06AD120F0F6
:101B600031F49F3F11F41EF45AC10EF4E095E7FBE7
:101B700050C1E92FB0D180F3BA1762077307840709
:101B8000950718F071F49EF5C8C10EF4E0950B2E80
:101B9000BA2FA02D0B01B90190010C01CA01A001BF
:101BA0001124FF27591B99F0593F50F4503E68F11A
:101BB0001A16F040A22F232F342F4427585FF3CF5B
:101BC000469537952795A795F0405395C9F77EF42C
:101BD0001F16BA0B620B730B840BBAF09150A1F075
:101BE000FF0FBB1F661F771F881FC2F70EC0BA0FFB
:101BF000621F731F841F48F4879577956795B79583
:101C0000F7959E3F08F0B3CF9395880F08F099277A
:101C1000EE0F97958795089514D1E3954AC10CD09E
:101C200037C107D140F0FED030F021F45F3F19F00A
:101C3000F0C0511173C1F3C04ED198F39923C9F389
:101C40005523B1F3951B550BBB27AA2762177307C2
:101C5000840738F09F5F5F4F220F331F441FAA1F76
:101C6000A9F333D00E2E3AF0E0E830D09150504036
:101C7000E695001CCAF729D0FE2F27D0660F771FE4
:101C8000881FBB1F261737074807AB07B0E809F0C6
:101C9000BB0B802DBF01FF2793585F4F2AF09E3F5B
:101CA000510568F0B6C03AC15F3FECF3983EDCF3F3
:101CB000869577956795B795F7959F5FC9F7880FD4
:101CC000911D9695879597F90895E1E0660F771F26
:101CD000881FBB1F621773078407BA0720F0621BB7
:101CE000730B840BBA0BEE1F88F7E095089504D0B0
:101CF0006894B11113C10895F6D088F09F5790F001
:101D0000B92F9927B751A0F0D1F0660F771F881F20
:101D1000991F1AF0BA95C9F712C0B13081F0FDD001
:101D2000B1E00895FAC0672F782F8827B85F39F09F
:101D3000B93FCCF3869577956795B395D9F73EF47F
:101D400090958095709561957F4F8F4F9F4F089527
:101D5000E89409C097FB3EF4909580957095619545
:101D60007F4F8F4F9F4F9923A9F0F92F96E9BB27FB
:101D70009395F695879577956795B795F111F8CF77
:101D8000FAF4BB0F11F460FF1BC06F5F7F4F8F4FE2
:101D90009F4F16C0882311F096E911C0772321F0D8
:101DA0009EE8872F762F05C0662371F096E8862F70
:101DB00070E060E02AF09A95660F771F881FDAF7C7
:101DC000880F9695879597F90895990F0008550FF4
:101DD000AA0BE0E8FEEF16161706E807F907C0F0B1
:101DE00012161306E407F50798F0621B730B840BB9
:101DF000950B39F40A2661F0232B242B252B21F493
:101E000008950A2609F4A140A6958FEF811D811D32
:101E1000089597F99F6780E870E060E008959FEF6C
:101E200080EC089500240A94161617061806090671
:101E3000089500240A941216130614060506089540
:101E4000EECF51D0E8F3E894E0E0BB279F57F0F0E5
:101E50002AED3FE049EC06C0EE0FBB0F661F771F6F
:101E6000881F28F0B23A62077307840728F0B25A35
:101E7000620B730B840BE3959A9572F7803830F4FC
:101E80009A95BB0F661F771F881FD2F7904894C1A1
:101E9000092E0394000C11F4882352F0BB0F40F478
:101EA000BF2B11F460FF04C06F5F7F4F8F4F9F4FB8
:101EB0000895EF93E0FF06C0A2EA2AED3FE049EC67
:101EC0005FEB57DEE5DF0F90039401FC9058E8EEDE
:101ED000FAE2B0E084C157FD9058440F551F59F005
:101EE0005F3F71F04795880F97FB991F61F09F3F07
:101EF00079F087950895121613061406551FF2CF30
:101F00004695F1DF08C0161617061806991FF1CF7F
:101F100086957105610508940895E894BB276627A6
:101F20007727CB0197F9089550DF08F48FEF0895D4
:101F300079DF19F07EDF09F072CF6BCFB901CA01EA
:101F400039C19F775F77C7DF98F39923B9F355239A
:101F5000B9F3FF27951758F4E52FE91BED3070F71B
:101F60005E3B10F0F1E41CC09034E0F40AC0E92FAD
:101F7000E51BED3028F79E3B10F0F1E411C0503422
:101F800088F4F9EA88232AF09A95660F771F881F4C
:101F9000DAF744232AF05A95220F331F441FDAF749
:101FA0009F1B5F1BFF931F930F93FF92EF9279018B
:101FB0008A01BB27AB2F9B01AC015FD09701A80121
:101FC000BF937B018C01AA27BA2FB901CA0155D052
:101FD000AF919701A801EF90FF900F911F91C9DD7C
:101FE00057DFAAD04F9140FF0895552747FD5095E0
:101FF00002C00FCFDFC077DFE8F39923D9F3940F46
:10200000511DBBF39150504094F059F0882332F0A9
:10201000660F771F881F91505040C1F79E3F5105B2
:1020200044F7880F911D9695879597F908955F3F1E
:10203000ACF0983E9CF0BB27869577956795B79551
:1020400008F4B1609395C1F7BB0F58F711F460FF26
:10205000E8CF6F5F7F4F8F4F9F4FE3CF5FCF0BD0A6
:1020600017CFE0DE28F0E5DE18F0952309F0D1CE99
:10207000D6CE112453CF2FDFA0F3959FD1F3950F28
:1020800050E0551F629FF001729FBB27F00DB11DFC
:10209000639FAA27F00DB11DAA1F649F6627B00D8C
:1020A000A11D661F829F2227B00DA11D621F739F75
:1020B000B00DA11D621F839FA00D611D221F749F83
:1020C0003327A00D611D231F849F600D211D822FCA
:1020D000762F6A2F11249F5750408AF0E1F0882311
:1020E0004AF0EE0FFF1FBB1F661F771F881F91501E
:1020F0005040A9F79E3F510570F08BCE0FCF5F3F48
:10210000ECF3983EDCF3869577956795B795F79550
:10211000E7959F5FC1F7FE2B880F911D96958795D8
:1021200097F908959F938DDE0F9007FCEE5FC1CE67
:1021300011F40EF474CE3EC0D6DED0F39923D9F359
:10214000CEF39F57550B87FF43D00024A0E640EA0B
:10215000900180585695979528F4805C660F771FFC
:10216000881F20F026173707480730F4621B730BCF
:10217000840B202931294A2BA695179407942025F2
:1021800031254A2758F7660F771F881F20F026173A
:102190003707480730F4620B730B840B200D311D99
:1021A000411DA09581F7B901842F9158880F96950C
:1021B000879508959F3F31F0915020F4879577954A
:1021C0006795B795880F911D9695879597F908950E
:1021D00091505040660F771F881FD2F708959F9344
:1021E0008F937F936F93BF93FF93EF939B01AC010A
:1021F00036DFEF91FF91BF9105D02F913F914F9125
:102200005F912DCFDF93CF931F930F93FF92EF92A8
:10221000DF92BBBF7B018C01689405C0DA2EEF0111
:102220002ADFFE01E894A7912791379147915791B2
:10223000AEF3EF019EDCFE019701A801DA9479F775
:10224000DF90EF90FF900F911F91CF91DF91089554
:102250000F931F93CF93DF939C01029710F422E01A
:1022600030E0E091900EF091910E80E090E0DC0182
:10227000309791F4009709F445C0821B930B84308A
:102280009105B0F5DB0112968D919D91209759F142
:102290008A839B83FB010DC04081518102811381A0
:1022A00042175307B8F089F4109751F012960D9326
:1022B0001C933296CF01DF91CF911F910F9108951A
:1022C0000093900E1093910EF4CF009751F04817A1
:1022D000590738F0AC01DE01CA01ED01DF01F80158
:1022E000C7CFBF01F9CF8093900E9093910ED2CFBC
:1022F000FB01E80FF91F219331930297DB018D93C6
:102300009D93D8CF4091920E5091930E4115510557
:1023100041F440910202509103024093920E509377
:10232000930E8091000290910102009741F48DB7C5
:102330009EB76091040270910502861B970B4817A7
:10234000590708F0B7CF841B950B8217930708F441
:10235000B1CFB9016E5F7F4F8617970708F4AACFF8
:10236000640F751F6093920E7093930EFA01219380
:102370003193A0CF009709F463C0FC013297128219
:1023800013822091900E3091910ED90140E050E0DF
:102390002115310591F420813181820F931F209105
:1023A000920E3091930E2817390709F063C0E0931D
:1023B000920EF093930E0895DB01AE17BF0708F05D
:1023C00040C012966D917D911497AD016115710514
:1023D00099F7DA011296ED93FD9314976D917D9123
:1023E000CD01860F971FE817F90761F4808191816D
:1023F0000296860F971FDA018D939D9382819381B8
:102400008D939D93E0E0F0E0D90112968D919D911E
:1024100014970097A1F58D919D918A0F9B1F409174
:10242000920E5091930E4817590751F4309751F579
:102430001092900E1092910E2093920E3093930E64
:102440000895A283B38360817181860F971FA817B7
:10245000B90761F46E5F7F4F8D919D91860F971F35
:10246000808391838D919D91828393834115510542
:1024700009F0AFCFE093900EF093910E0895F9011B
:102480009C01C2CF12821382D7CFFB01DC0102C0B4
:1024900001900D9241505040D8F708950F931F932B
:1024A000CF93DF93CDB7DEB72E970FB6F894DEBF8C
:1024B0000FBECDBF8C01CA0146E04C8309831A834D
:1024C000FB016130704810F0E0E0F0E83197ED83F7
:1024D000FE83A901BC01CE01019652D04D815E81DF
:1024E00057FD0AC02F813885421753070CF49A0113
:1024F000020F131FF80110822E960FB6F894DEBF5C
:102500000FBECDBFDF91CF911F910F9108950F9313
:102510001F93CF93DF93CDB7DEB72E970FB6F89406
:10252000DEBF0FBECDBF8C01CA014EE04C830983D4
:102530001A83FB016130704810F0E0E0F0E8319759
:10254000ED83FE83A901BC01CE01019619D04D8116
:102550005E8157FD0AC02F813885421753070CF45E
:102560009A01020F131FF80110822E960FB6F894ED
:10257000DEBF0FBECDBFDF91CF911F910F910895A8
:102580005F926F927F928F929F92AF92BF92CF9203
:10259000DF92EF92FF920F931F93CF93DF93CDB70C
:1025A000DEB72B970FB6F894DEBF0FBECDBF6C0120
:1025B0007B018A01FC0116821782838181FFE3C1BE
:1025C0003AE0532EF6012381F70123FD859123FF85
:1025D00081917F01811509F42EC1853239F423FDE3
:1025E000959123FF91917F01953221F4B60190E0FE
:1025F000E3D1E8CF30E0912C612C712CF0E27F1612
:1026000040F59B32D9F058F49032D1F09332F1F08A
:102610009E3291F576FC0FC1689476F806C09D3223
:1026200091F09033C1F4689470F8F70123FD95910F
:1026300023FF91917F019111E1CF28C0689471F837
:10264000689472F8F2CF689473F8EFCF689474F8D6
:10265000ECCF77FC1BC080ED890F8A30C8F676FE80
:1026600005C0959C800D1124982EDFCF659C800DB0
:102670001124682E7F2AD9CF9C3619F4689477F8F4
:10268000D4CF9C3409F443C0983679F2892F8F7DDA
:102690008554833008F43DC0933609F45EC0933707
:1026A00009F468C0933509F473C0943619F099366B
:1026B00009F09DC0F80177FE93C0619171918191FD
:1026C00091918F01272D2F76822E97FF03C002D282
:1026D000689487F82AE030E05E014FEFA41AB40A4C
:1026E000A5019AD1782E7A1886FEDBC0882D8E7FC0
:1026F000791408F0D5C084FE26C182FC1AC12EEEE2
:102700008222B92C882D867809F4D7C017C131E010
:102710008CCF3115F9F0085F1F4F8FE3898321E0DB
:10272000822E912C5E012FEFA21AB20AE89477F85C
:1027300073FC03C086149104D8F18114910409F04C
:102740003DC0611409F43ECFB60180E290E034D17F
:102750006A94F7CF0C5F1F4FE0CFF8018081898327
:102760000E5F1F4F91E0892E912C5E01FFEFAF1A93
:10277000BF0ADCCFF801A190B1908F01692D70E004
:1027800076FC02C06FEF7FEFC5010BD14C01CECFBD
:10279000F801A190B1908F01692D70E076FC02C024
:1027A0006FEF7FEFC501F2D04C01689477F8C0CF8E
:1027B000B60180E290E000D16A94BCCFF50177FCCD
:1027C000859177FE81915F01B60190E0F5D081E0BF
:1027D000611001C080E0681AF1E08F1A9108ADCF56
:1027E00061917191872F880F880B982F6ACF953749
:1027F000C1F4872CE89484F82AE030E0F80187FEE1
:102800004AC061917191819191918F015E01FFEFB9
:10281000AF1ABF0AA50100D1782E7A18E89487F87C
:1028200063CF872D897F882E903729F1E8F498357A
:1028300039F19F3669F1F601868197812B960FB6A3
:10284000F894DEBF0FBECDBFDF91CF911F910F91E6
:10285000FF90EF90DF90CF90BF90AF909F908F90C0
:102860007F906F905F900895983729F774FC05C0AA
:1028700020E130E0C3CF689484F8689482F8F8CF00
:1028800074FE03C0E72DE6608E2E20E132E0B6CF65
:1028900028E030E0B3CF6191719180E090E0B5CF56
:1028A000882EB72C84FE2ECFFE01E70DF11D80810E
:1028B000803309F041C049EE842283FC0EC080FEC3
:1028C0004DC0972CB61418F4960C9B18B62C862D78
:1028D0008B196B1408F480E0B80EB61408F040C0F1
:1028E0006B1884FE3FC0B60180E390E065D082FEA5
:1028F00008C088E590E081FC02C088E790E0B6015E
:102900005BD07914D0F15E018FEFA81AB80A7A94DF
:1029100082E0882E912C8C0E9D1E870C911CF40158
:1029200082914F01B60190E047D08A149B04B9F719
:1029300008CFB92C882EB8CF82FC02C0B394BDCF8B
:10294000B394B394BACFB92C882EDCCEB60180E212
:1029500090E032D0A394A614C8F3B9CFAB2CFBCF30
:10296000612CBFCF882D867861F280E281FC8BE2FA
:1029700087FC8DE2B60190E0C3CFB60180E390E022
:102980001BD09A94BECF8FEF9FEF58CFFC010590DC
:10299000615070400110D8F7809590958E0F9F1F61
:1029A0000895FC016150704001900110D8F78095A6
:1029B00090958E0F9F1F08950F931F93CF93DF93D2
:1029C000182F092FEB018B8181FD09C00FEF1FEF3D
:1029D000812F902FDF91CF911F910F91089582FF4A
:1029E00014C02E813F818C819D81281739073CF4CA
:1029F000E881F981CF0101968883998310838E81C4
:102A00009F8101968E839F83E3CFE885F985812F8F
:102A10000995892BA1F3DACFFA01AA27283051F1C1
:102A2000203181F1E8946F936E7F6E5F7F4F8F4FFF
:102A30009F4FAF4FB1E03ED0B4E03CD0670F781F5E
:102A4000891F9A1FA11D680F791F8A1F911DA11D43
:102A50006A0F711D811D911DA11D20D009F468947C
:102A60003F912AE0269F11243019305D3193DEF624
:102A7000CF010895462F4770405D4193B3E00FD0DA
:102A8000C9F7F6CF462F4F70405D4A3318F0495DC5
:102A900031FD4052419302D0A9F7EACFB4E0A695A8
:102AA0009795879577956795BA95C9F700976105CA
:102AB000710508959B01AC010A2E06945795479520
:102AC00037952795BA95C9F7620F731F841F951F15
:102AD000A01D089590958095709561957F4F8F4FBB
:102AE0009F4F0895F894FFCF05A84CCDB2D44EB9AE
:102AF0003836A9020C50B9918688083CA6AAAA2AA1
:102B0000BE000000803F3908460857085A08680888
:0A2B1000D908DF08E408F9071508EA
:102B1A000000861B2000FFFF050000803F0000FF29
:102B2A00FF0000484300000000DB0FC93F726563E5
:102B3A006569766564202575206279746573006914
:102B4A00725F646174612825752C3A29203D205BE7
:102B5A0025752C2025752C2025752C2025752C20D3
:102B6A0025755D3B006669677572653B0073756222
:102B7A00706C6F7428322C332C31293B20706C6FA7
:102B8A00742869725F64617461283A2C3129293B7F
:102B9A00207469746C652827496E6672617265646F
:102BAA002053656E736F72203127293B20796C613F
:102BBA0062656C28274144432056616C7565272954
:102BCA003B2067726964206F6E3B00737562706C9C
:102BDA006F7428322C332C32293B20706C6F742886
:102BEA0069725F64617461283A2C3229293B207426
:102BFA0069746C652827496E667261726564205330
:102C0A00656E736F72203227293B20796C61626589
:102C1A006C28274144432056616C756527293B205F
:102C2A0067726964206F6E3B00737562706C6F74B3
:102C3A0028322C332C33293B20706C6F742869722C
:102C4A005F64617461283A2C3329293B20746974C2
:102C5A006C652827496E6672617265642053656ED9
:102C6A00736F72203327293B20796C6162656C2867
:102C7A00274144432056616C756527293B206772BA
:102C8A006964206F6E3B00737562706C6F742832D2
:102C9A002C332C34293B20706C6F742869725F6462
:102CAA00617461283A2C3429293B207469746C6553
:102CBA002827496E6672617265642053656E736F68
:102CCA0072203427293B20796C6162656C28274180
:102CDA0044432056616C756527293B2067726964F5
:102CEA00206F6E3B00737562706C6F7428322C33E0
:102CFA002C35293B20706C6F742869725F6461748B
:102D0A0061283A2C3529293B207469746C65282777
:102D1A00496E6672617265642053656E736F7220C4
:102D2A003527293B20796C6162656C282741444329
:102D3A002056616C756527293B2067726964206F8C
:102D4A006E3B00646973702827496E66726172650A
:102D5A00642073656E736F72206461746120706C95
:102D6A006F7474656427293B00456E636F646572EE
:102D7A0020546573743A2045313D256420285069F2
:102D8A006E733D307825303258292C2045323D2546
:102D9A0064202850696E733D3078253032582900F6
:102DAA00496E6672617265642053656E736F722034
:102DBA00333A2025750043616C696220466F727749
:102DCA006172643A2053616D706C652025752F31EC
:102DDA0035302C2045313D25642045323D2564207F
:102DEA0050574D3D25642050696E73313D3078252A
:102DFA003032582050696E73323D3078253032585F
:102E0A000043616C696220526F746174696F6E3A33
:102E1A002053616D706C652025752F3130302C2060
:102E2A0045313D25642045323D256400656E636F5A
:102E3A006465725F63616C5F64617461203D207ACE
:102E4A0065726F73283235302C2032293B0073614A
:102E5A006D706C655F74696D65203D207A65726F6F
:102E6A0073283235302C2031293B0070776D5F731F
:102E7A0070656564203D207A65726F73283235303B
:102E8A002C2031293B007068617365203D207A65EA
:102E9A00726F73283235302C2031293B00656E63FE
:102EAA006F6465725F63616C5F6461746128257524
:102EBA002C3A29203D205B25642C2025645D3B00AB
:102ECA0073616D706C655F74696D6528257529205D
:102EDA003D2025753B0070776D5F737065656428CA
:102EEA00257529203D2025643B007068617365289B
:102EFA00257529203D2025753B00666F7277617222
:102F0A00645F7469636B735F31203D20656E636F24
:102F1A006465725F63616C5F646174612831353026
:102F2A002C3129202D20656E636F6465725F6361A1
:102F3A006C5F6461746128312C31293B00666F72C1
:102F4A00776172645F7469636B735F32203D2065D9
:102F5A006E636F6465725F63616C5F64617461283C
:102F6A003135302C3229202D20656E636F646572ED
:102F7A005F63616C5F6461746128312C32293B00A4
:102F8A006176675F666F72776172645F7469636B9B
:102F9A0073203D2028666F72776172645F7469637B
:102FAA006B735F31202B20666F72776172645F7476
:102FBA0069636B735F3229202F20323B0077686583
:102FCA00656C5F7469636B73203D206176675F6629
:102FDA006F72776172645F7469636B73202F20323A
:102FEA003B2025204D6F746F722032782066617302
:102FFA00746572207468616E20776865656C7320E9
:10300A0028323A31206765617220726174696F29CA
:10301A000064697374616E63655F6D6D203D203372
:10302A003030303B20252033206D65746572730083
:10303A007469636B735F7065725F6D6D203D207795
:10304A006865656C5F7469636B73202F20646973AC
:10305A0074616E63655F6D6D3B202520456E636FFD
:10306A00646572207469636B7320706572206D6D7C
:10307A002028776865656C206D6F76656D656E745E
:10308A0029006D6D5F7065725F7469636B203D2006
:10309A0064697374616E63655F6D6D202F20776854
:1030AA0065656C5F7469636B733B2025206D6D20C9
:1030BA0070657220656E636F646572207469636BF4
:1030CA002028776865656C206D6F76656D656E740E
:1030DA0029006D6F746F725F7469636B735F7065DB
:1030EA00725F6D6D203D206176675F666F727761F2
:1030FA0072645F7469636B73202F206469737461EF
:10310A006E63655F6D6D3B2025204D6F746F722075
:10311A00656E636F646572207469636B7320706592
:10312A0072206D6D00726F746174696F6E5F74697D
:10313A00636B735F31203D20656E636F6465725FF8
:10314A0063616C5F64617461283235302C312920E7
:10315A002D20656E636F6465725F63616C5F646185
:10316A007461283135312C31293B00726F746174D6
:10317A00696F6E5F7469636B735F32203D20656EA1
:10318A00636F6465725F63616C5F64617461283246
:10319A0035302C3229202D20656E636F6465725F8D
:1031AA0063616C5F64617461283135312C32293B6B
:1031BA0000726F746174696F6E5F64696666203D40
:1031CA0020726F746174696F6E5F7469636B735F89
:1031DA0031202D20726F746174696F6E5F74696338
:1031EA006B735F323B20252053686F756C642062D5
:1031FA006520706F73697469766520666F72203313
:10320A003630C2B0207475726E006176675F726F75
:10321A00746174696F6E5F7469636B73203D2028F3
:10322A0061627328726F746174696F6E5F74696327
:10323A006B735F3129202B2061627328726F74616E
:10324A0074696F6E5F7469636B735F322929202F0B
:10325A0020323B00776865656C5F726F74617469D0
:10326A006F6E5F7469636B73203D206176675F726E
:10327A006F746174696F6E5F7469636B73202F205A
:10328A00323B2025204D6F746F72203278206661A0
:10329A0073746572207468616E20776865656C73F3
:1032AA00007469636B735F7065725F6465677265EA
:1032BA0065203D20776865656C5F726F746174691B
:1032CA006F6E5F7469636B73202F203336303B2037
:1032DA002520456E636F646572207469636B732081
:1032EA007065722064656772656520287768656510
:1032FA006C20726F746174696F6E290073756270E5
:10330A006C6F7428342C312C31293B20706C6F740B
:10331A002873616D706C655F74696D652C20656ECC
:10332A00636F6465725F63616C5F64617461283A9C
:10333A002C31292C2027622D27293B20686F6C64A9
:10334A00206F6E3B20706C6F742873616D706C65B2
:10335A005F74696D652C20656E636F6465725F6367
:10336A00616C5F64617461283A2C32292C202772BF
:10337A002D27293B207469746C652827456E636F75
:10338A006465722043616C6962726174696F6E2050
:10339A00446174612028336D20666F7277617264AC
:1033AA00202B20333630C2B020726F746174696F7B
:1033BA006E2927293B20786C6162656C2827536146
:1033CA006D706C65204E756D62657227293B207998
:1033DA006C6162656C2827456E636F646572205460
:1033EA0069636B7327293B206C6567656E642827C0
:1033FA00456E636F6465722031272C2027456E6302
:10340A006F646572203227293B2067726964206FD6
:10341A006E3B20686F6C64206F66663B0073756252
:10342A00706C6F7428342C312C32293B20706C6FED
:10343A00742873616D706C655F74696D652C2065A5
:10344A006E636F6465725F63616C5F646174612847
:10345A003A2C3129202D20656E636F6465725F6393
:10346A00616C5F64617461283A2C32292C202767C9
:10347A002D27293B207469746C652827456E636F74
:10348A0064657220446966666572656E63652028A4
:10349A004531202D2045322927293B20786C61624D
:1034AA00656C282753616D706C65204E756D626579
:1034BA007227293B20796C6162656C2827546963FD
:1034CA006B20446966666572656E636527293B20D1
:1034DA0067726964206F6E3B00737562706C6F74FB
:1034EA0028342C312C33293B20706C6F742873617B
:1034FA006D706C655F74696D652C2070776D5F7394
:10350A00706565642C20276D2D27293B207469740A
:10351A006C65282750574D205370656564204F7697
:10352A0065722054696D6527293B20786C61626554
:10353A006C282753616D706C65204E756D626572DB
:10354A0027293B20796C6162656C282750574D20EA
:10355A0056616C756527293B2067726964206F6E16
:10356A003B00737562706C6F7428342C312C3429CB
:10357A003B20706C6F742873616D706C655F746941
:10358A006D652C2070686173652C20276B2D2729A7
:10359A003B207469746C652827506861736520281C
:1035AA00313D466F72776172642C20323D526F74DE
:1035BA006174696F6E2927293B20786C6162656C9A
:1035CA00282753616D706C65204E756D6265722790
:1035DA00293B20796C6162656C28275068617365A4
:1035EA0027293B2067726964206F6E3B0064726111
:1035FA00776E6F773B00667072696E746628274330
:10360A00616C6962726174696F6E20636F6D706C50
:10361A00657465215C6E4461746120706F696E74B3
:10362A00733A2025645C6E5C6E4D6F746F7220670E
:10363A0065617220726174696F3A20323A312028CA
:10364A004D6F746F722032782066617374657220D0
:10365A007468616E20776865656C73295C6E5C6E50
:10366A00466F72776172642028336D293A5C6E4D19
:10367A006F746F72207469636B7320706572206D4A
:10368A006D3A20252E34665C6E576865656C207429
:10369A0069636B7320706572206D6D3A20252E3434
:1036AA00665C6E6D6D2070657220776865656C204A
:1036BA007469636B3A20252E34665C6E5C6E526FB9
:1036CA00746174696F6E2028333630C2B0293A5C4F
:1036DA006E576865656C207469636B7320706572D8
:1036EA00206465677265653A20252E34665C6E45EE
:1036FA006E636F64657220646966666572656E637F
:10370A00653A2025645C6E5C6E506C6F747320732E
:10371A00686F756C642062652076697369626C658E
:10372A00206E6F772E5C6E272C206C656E6774682E
:10373A002873616D706C655F74696D65292C206DE5
:10374A006F746F725F7469636B735F7065725F6DBC
:10375A006D2C207469636B735F7065725F6D6D2C7D
:10376A00206D6D5F7065725F7469636B2C2074697C
:10377A00636B735F7065725F6465677265652C2041
:10378A00726F746174696F6E5F64696666293B0063
:10379A000001FF00FF000001010000FF00FF01001F
:00000001FF
