:10000000E0C00000FDC00000FBC00000F9C000001F
:10001000F7C00000F5C00000F3C00000F1C0000010
:10002000EFC00000EDC00000EBC00000E9C0000020
:10003000E7C00000E5C00000E3C00000E1C0000030
:10004000DFC00000DDC00000DBC00000D9C0000040
:10005000D7C00000D5C00000D3C00000D1C0000050
:10006000CFC00000CDC00000CBC00000C9C0000060
:10007000C7C00000C6C00000C3C00000C1C000006F
:10008000BFC00000BDC00000BBC00000B9C0000080
:1000900005C1000022C10000B3C00000B1C00000D3
:1000A000AFC00000ADC00000ABC00000A9C00000A0
:1000B000A7C00000A5C00000A3C000002BC1000025
:1000C0009FC000009DC000009BC0000099C00000C0
:1000D00097C0000095C0000093C0000091C00000D0
:1000E0008FC0000005A84CCDB2D44EB93836A90255
:1000F0000C50B9918688083CA6AAAA2ABE00000026
:10010000803F466F6C6C6F77657220706172616DB5
:1001100065746572732073657400466F6C6C6F77DD
:10012000657220726573657400466F6C6C6F7765DD
:10013000722070617573656400466F6C6C6F7765D3
:10014000722073746172746564004E6F2070617404
:100150006820617661696C61626C650050617468E9
:10016000206F6620257520706F696E74732C2031A6
:100170002E2825692C25692920322E2825692C2531
:100180006929202E2E2E00466F6C6C6F7765723AAF
:10019000206F7574206F66206D656D6F7279206FAA
:1001A0007220706174682068617320746F6F2066BC
:1001B000657720706F696E747300426F6F74656449
:1001C000000011241FBECFEFD1E2DEBFCDBF1EBAAB
:1001D00012E0A0E0B2E0E8E8FFE100E00BBF02C0FF
:1001E00007900D92A033B107D9F728E0A0E3B2E061
:1001F00001C01D92A234B207E1F792D50C94C20F50
:1002000027C52F922FB67F938F939F93CF93DF9322
:10021000EF93FF93C0918A06D0918B06FE01E65FB3
:10022000FF4F86E0EE3BF807B1F1818180937C00BF
:10023000828180937B00F0938B06E0938A06E881AD
:10024000E395E070E883FF27EE0FFF1FEC0FFD1F23
:100250007085909178009087791B818590917900C5
:100260009187890B982F990F990BEC81E71BEC83F1
:10027000ED81E80BED83EE81E90BEE83EB81EF7707
:10028000EB83FF91EF91DF91CF919F918F917F91C0
:100290002FBE2F901895ECE8F6E0C7CF2F922FB61F
:1002A0002F93EF93FF932091CE00E0915506E395B5
:1002B000EF77F0915606FE1761F0E0935506F0E0F7
:1002C000E254F94F2083FF91EF912F912FBE2F9091
:1002D000189521E020935906F6CF2F922FB6EF9371
:1002E000FF93F0915706E0915806FE1779F0E395D9
:1002F000EF7FE0935806F0E0E25CF84FE081E09396
:10030000CE00FF91EF912FBE2F901895E8E9E09372
:10031000C900F7CF2F922FB6CF93DF93EF93FF93C0
:10032000FF27C0917606D09177062196C093760676
:10033000D0937706C0917806D0917906CF1FDF1F42
:10034000C0937806D0937906F09904C0F09AEFE054
:10035000F2E003C0F098EDE0F2E0C081D181229696
:10036000D183C083C0FD05C0F29B03C0EFECE093D6
:100370007A00FF91EF91DF91CF912FBE2F901895CA
:10038000EF92FF920F931F93CF93DF93009131026F
:10039000C0913302D0913402CE018B5C9D4F7C0121
:1003A0001091320208C09FEFE91AF90A082710E0FD
:1003B000C1D18823F1F0ACD1111104C0813149F1D0
:1003C0008B3249F1F70180832196C115F4E0DF07F4
:1003D00051F78091300281608093300210E085E314
:1003E000E82E82E0F82ED0E0C0E000E0A3D1811139
:1003F000E2CF00933102D0933402C09333021170E4
:1004000010933202DF91CF911F910F91FF90EF90E7
:10041000089511E0CDCFC430D10568F48091300249
:1004200082608093300200E095E3E92E92E0F92E9D
:10043000D0E0C0E0BDCF809135029091360289278F
:10044000982F92959F708F708927E09137029E2F89
:1004500092959F70981721F0809130028460E1CFCF
:1004600024978091350290913602C817D90721F060
:10047000809130028860D5CF011117C0EF70F0E095
:10048000EE0FFF1FEB5CF94F0190F081E02D3097EC
:1004900081F0BE0188E392E00995102F35E3E32E49
:1004A00032E0F32ED0E0C0E083CF80913002806153
:1004B000B8CF80913002806280933002102F25E304
:1004C000E22E22E0F22ED0E0C0E072CFE5E3F6E0CB
:1004D00080E2DF011D928A95E9F70895E82FF0E0A8
:1004E000EE0FFF1FEB5CF94F718360830895CF928D
:1004F000DF92EF92FF920F931F93CF93DF93182F0A
:100500006B017A01413109F451C04B3209F44EC0FC
:100510008E2DECD08F2D813109F450C08B3209F42F
:100520004DC08F2DE3D0DF2DDE2520E1D29FC0010D
:100530001124CD2FC07FC8271F70C12BC13109F4F2
:1005400040C0CB3209F43DC08C2FD0D0DC27E11461
:10055000F104C9F08601EC0CFD1C06C08C2FC6D03E
:10056000DC270E151F0579F0F801C1918F01C1310B
:1005700011F0CB3299F781E1B9D08C2FB7D0DC27BD
:100580000E151F0589F7D13171F0DB3261F08D2F27
:10059000ADD08BE2DF91CF911F910F91FF90EF9043
:1005A000DF90CF90A3C081E1A1D0F1CF81E19ED0B7
:1005B0008E2D9CD08F2D813109F0B0CF81E196D066
:1005C000B0CF81E193D0C0CF0F931F93CF93DF9330
:1005D000CDB7DEB782E091E00E948A0B8C010097D4
:1005E00011F12F81FC012193CF019E01265F3F4F26
:1005F0004885598561E071E00E94B80C8130F1E0D6
:100600009F0774F4AC014F5F5F4FB80180E06FDF6C
:10061000C8010E94260CDF91CF911F910F91089580
:1006200080E091E0EFCF80913002806480933002CF
:10063000DF91CF911F910F9108950F931F93CF9347
:10064000DF93CDB7DEB782E091E00E948A0B8C0188
:10065000009711F12F81FC012193CF019E01265FAC
:100660003F4F4885598561E071E00E94F00C813070
:10067000F1E09F0774F4AC014F5F5F4FB80180E079
:1006800036DFC8010E94260CDF91CF911F910F9198
:10069000089580E091E0EFCF8091300280648093F4
:1006A0003002DF91CF911F910F91089543D08111B6
:1006B00001C0089565CE282F30E04AE0849FC00134
:1006C00011248457994F4FB7F894F901EE0FFF1F8B
:1006D000EE0FFF1FE20FF31FEE0FFF1FE457F94F5E
:1006E00084819581A681B7814FBF089520915706D7
:1006F0002F5F909158069217E1F3E22FF0E0E25C51
:10070000F84F80832093570688EB8093C9000895A3
:1007100090915506809156069817D1F39091560600
:100720009F5F9F77E92FF0E0E254F94F808190932B
:1007300056060895209155069091560681E029139A
:10074000089580E00895E5E6F0E080818E7F808363
:100750001092CD001092CC0080E48093C80088E90C
:100760008093C90086E08093CA000895CF93DF93F9
:10077000E5E6F0E08081877E8083A1E9B0E01C920D
:10078000E1EAF0E0108282EF809390008093A00075
:10079000109292001092A2002FB7F8941092950038
:1007A000109294001092A5001092A4008FEF9FE188
:1007B00090939700809396009093A7008093A60053
:1007C000909399008093980090939B0080939A0057
:1007D0009093A9008093A8009093AB008093AA0007
:1007E0008DB188618DB9C1E0D1E08881886188834D
:1007F00081E883BD81E18C93808313BC2FBFDF919F
:10080000CF91089597FD18C09F710FB6F89410927C
:1008100099001092980090939B0080939A0077FD26
:100820001BC07F711092A9001092A8007093AB00BA
:100830006093AA000FBE08959195819591099F71CB
:100840000FB6F89410929B0010929A009093990022
:100850008093980077FFE5CF7195619571097F715D
:100860001092AB001092AA007093A9006093A800A8
:100870000FBE08952FB7F8948FEF9FE190939900E2
:100880008093980090939B0080939A009093A90086
:100890008093A8009093AB008093AA002FBF089587
:1008A000CF92DF92EF92FF92CF93DF93EC01C8805B
:1008B000D980EA80FB8020E030E0A901C701B601C1
:1008C0007FD5181644F4C0920902D0920A02E09231
:1008D0000B02F0920C028C818093080282E091E07E
:1008E0009F938F9382E08F93A8DE0F900F900F90CD
:1008F000DF91CF91FF90EF90DF90CF9008952F92EE
:100900003F924F925F926F927F928F929F92AF929F
:10091000BF92CF92DF92EF92FF920F931F93CF93EC
:10092000DF93D82E5B0110925B068FEF9FEF9093C1
:1009300007028093060210925A06109265061092E2
:100940006006109261061092620610926306109281
:10095000640680915C0690915D06009709F076D759
:100960000D2D10E078018FEFE81AF80AEE0CFF1C4D
:10097000EE0CFF1CC701CED6EC0190935D06809370
:100980005C0680E0209709F458C0A701B501CE01AC
:10099000E6D7D0925B060250104C000F111F000FDB
:1009A000111FC00FD11F0C811D812E803F808881B7
:1009B0009981B801681B790B072E000C880B990BE5
:1009C00016D42B013C018A819B81B101681B790BF4
:1009D000072E000C880B990B0AD46B017C01AC012B
:1009E0009B01C301B201F9D44B015C0120E030E06E
:1009F00040E251E46091090270910A0280910B0279
:100A000090910C0278D5A501940156D34B015C015D
:100A1000AC019B01C301B2016ED5B6D3600F711F4B
:100A200079876887A5019401C701B60164D5ACD365
:100A3000620D731D7B876A8781E0DF91CF911F91E3
:100A40000F91FF90EF90DF90CF90BF90AF909F906D
:100A50008F907F906F905F904F903F902F90089570
:100A6000CF93DF93EC018881811113C0898182309B
:100A700030F0BE016E5F7F4F42DF811125C087E8F5
:100A800091E09F938F931F92D8DD0F900F900F905E
:100A900008C0813091F0823009F44BC0833009F4F2
:100AA00057C0E0915E06F0915F06309709F44DC0A3
:100AB00069818881DF91CF91099490915B069111B2
:100AC0002BC08AE491E0DDCFE0915C06F0915D06F9
:100AD00087818F9386818F9385818F9384818F9374
:100AE00083818F9382818F9381818F9380818F9374
:100AF00080915B061F928F938CE591E09F938F937B
:100B000082E08F939ADD8DB79EB70D960FB6F8945D
:100B10009EBF0FBE8DBFC5CF8093650689E391E070
:100B20009F938F9382E08F9388DD0F900F900F90AB
:100B3000B8CF1092650629E231E03F932F938F934F
:100B40007CDD0F900F900F90ACCFDF91CF91089587
:100B50008FEF9FEF909307028093060210925A0640
:100B6000109265061092600610926106109262065D
:100B700010926306109264068AE191E0D1CF60E39F
:100B800075E083E0ABDC60E574E084E0A7CCF1992C
:100B90001FC0F19A809165008F7D8093650010924F
:100BA00021018FB7F894109225011092240128EEAC
:100BB00033E030932901209328018FBF1092220146
:100BC0001092200182E0809373008AE080932101DB
:100BD0000895EFB7F89420912401309125014091B8
:100BE0007606509177066091780670917906EFBF8E
:100BF000FC0140835183628373833583248308958A
:100C00000F931F93CF93DF93FC01EB012881398170
:100C10004A815B8180819181A281B381281B390B3C
:100C20004A0B5B0BA8EEB3E05CD52C813D8144817F
:100C30005581241B350B8901330F220B330B600FB9
:100C4000711F821F931FDF91CF911F910F91089504
:100C50001F920F920FB60F921124179A169890E4D4
:100C60002FEF30E782E0215030408040E1F700C0B4
:100C7000000082B1805882B982B1892782B9F0CF51
:100C800008957F936F938DE192E09F938F9383E01C
:100C90008F939ADC0F900F900F900F900F90089504
:100CA000CF93DF931F92CDB7DEB7FC0180818230F6
:100CB00059F168F4882319F1813029F468E474EF5C
:100CC00088EB9BE09FDD0F90DF91CF9108958330FB
:100CD00081F08430C1F783E0EEDC898341E050E0AD
:100CE000BE016F5F7F4F87E002DC0F90DF91CF91F5
:100CF000089582E06ED10F90DF91CF910895BADD13
:100D00000F90DF91CF91089568EB7BE088EB9BE03B
:100D100079DD0F90DF91CF9108950895089508959A
:100D2000CF93DF93CDB7DEB766970FB6F894DEBFEB
:100D30000FBECDBF8FEE809364008FE3809365007C
:100D400081B1806C81B9FFDCC1DB61E476E080E0D9
:100D5000C5DB60E476E081E0C1DB6FE876E082E04D
:100D6000BDDB0DDF6DE876E085E0B8DB60E576E0C1
:100D700086E0B4DB6EE876E088E0B0DBF7DC07DF26
:100D80002BD12DD178948AEB91E09F938F9382E0C1
:100D90008F9353DC0F900F900F9088EC882E912C3E
:100DA0009CEBA92E9EEFB92E24E1222E312C34E1AA
:100DB000432E3EEA532E39E2632E32E4732E17C0DF
:100DC000F09905C080910D0290910E0204C08091AF
:100DD0000F029091100220917C0630917D06AC01AB
:100DE000421B530B4639510508F064C05FDCE8D064
:100DF000F09905C080910D0290910E0204C080917F
:100E00000F02909110022091800630918106AC0172
:100E1000421B530B9A01243F314040F090938106CE
:100E20008093800682B190E4892782B9F09905C049
:100E300080910D0290910E0204C080910F0290915A
:100E4000100220917E0630917F06AC01421B530BAD
:100E50009A012C32314008F4B3CF90937F068093EF
:100E60007E0682E089831A829C828B82BE82AD825A
:100E700080E021DC98878F8381E01DDC9A87898759
:100E800082E019DC9C878B8783E015DC9E878D8749
:100E900084E011DC988B8F873A8A298A4B8A5C8A96
:100EA0006D8A7E8A46E150E0BE016F5F7F4F81E030
:100EB0001EDB86CF90937D0680937C0600917A0698
:100EC00010917B06B801012E000C880B990B8FD175
:100ED0002CE739ED40E25FE30ED32AE939E949E135
:100EE0005EE309D36B017C01E4D020E030E048E40C
:100EF00053E401D3609311027093120280931302A2
:100F000090931402C701B60159D320E030E048E4C1
:100F100053E4F1D260931502709316028093170286
:100F2000909318022BED3FE049EC5FE3C701B60157
:100F30005CD06093190270931A0280931B02909305
:100F40001C020F5F1F4F10937B0600937A064CE044
:100F500050E061E172E082E0CADA48CFCF93DF93DC
:100F600000D000D000D0CDB7DEB7809182068823B4
:100F7000D9F0CE0101962DDEBE016F5F7F4F83E871
:100F800096E03EDE61347B448C44910520F0109263
:100F900089061092820626960FB6F894DEBF0FBE21
:100FA000CDBFDF91CF91089583E896E012DE68EB24
:100FB0007BE088EB9BE026DC81E080938206D9CF42
:100FC00080918906882321F0823009F4C7CF0895E3
:100FD00051CC80938906089580EC8EB9089583E002
:100FE0008BB980EC85B908955058BB27AA270ED03D
:100FF0009CC165D130F06AD120F031F49F3F11F4EB
:101000001EF45AC10EF4E095E7FB50C1E92FAFD1B1
:1010100080F3BA17620773078407950718F071F415
:101020009EF5C7C10EF4E0950B2EBA2FA02D0B0133
:10103000B90190010C01CA01A0011124FF27591B1D
:1010400099F0593F50F4503E68F11A16F040A22F23
:10105000232F342F4427585FF3CF46953795279594
:10106000A795F0405395C9F77EF41F16BA0B620B93
:10107000730B840BBAF09150A1F0FF0FBB1F661FDA
:10108000771F881FC2F70EC0BA0F621F731F841F1D
:1010900048F4879577956795B795F7959E3F08F043
:1010A000B3CF9395880F08F09927EE0F9795879502
:1010B000089514D1E3954AC10CD037C107D140F04F
:1010C000FED030F021F45F3F19F0F0C0511172C131
:1010D000F3C04DD198F39923C9F35523B1F3951B70
:1010E000550BBB27AA2762177307840738F09F5F49
:1010F0005F4F220F331F441FAA1FA9F333D00E2EB8
:101100003AF0E0E830D091505040E695001CCAF724
:1011100029D0FE2F27D0660F771F881FBB1F2617E9
:1011200037074807AB07B0E809F0BB0B802DBF01BC
:10113000FF2793585F4F2AF09E3F510568F0B6C0D5
:1011400039C15F3FECF3983EDCF386957795679560
:10115000B795F7959F5FC9F7880F911D969587956D
:1011600097F90895E1E0660F771F881FBB1F62178C
:1011700073078407BA0720F0621B730B840BBA0B4A
:10118000EE1F88F7E095089504D06894B11112C15C
:101190000895F5D088F09F5790F0B92F9927B7514F
:1011A000A0F0D1F0660F771F881F991F1AF0BA952B
:1011B000C9F712C0B13081F0FCD0B1E00895F9C098
:1011C000672F782F8827B85F39F0B93FCCF3869521
:1011D00077956795B395D9F73EF49095809570957E
:1011E00061957F4F8F4F9F4F0895E89409C097FBFB
:1011F0003EF490958095709561957F4F8F4F9F4FEE
:101200009923A9F0F92F96E9BB279395F695879531
:1012100077956795B795F111F8CFFAF4BB0F11F4F4
:1012200060FF1BC06F5F7F4F8F4F9F4F16C088239B
:1012300011F096E911C0772321F09EE8872F762FD1
:1012400005C0662371F096E8862F70E060E02AF012
:101250009A95660F771F881FDAF7880F96958795FE
:1012600097F90895990F0008550FAA0BE0E8FEEFD3
:1012700016161706E807F907C0F012161306E4075A
:10128000F50798F0621B730B840B950B39F40A2653
:1012900061F0232B242B252B21F408950A2609F431
:1012A000A140A6958FEF811D811D089597F99F6735
:1012B00080E870E060E008959FEF80EC08950024DE
:1012C0000A941616170618060906089500240A94AB
:1012D00012161306140605060895EECF50D0E8F353
:1012E000E894E0E0BB279F57F0F02AED3FE049EC9F
:1012F00006C0EE0FBB0F661F771F881F28F0B23A9B
:1013000062077307840728F0B25A620B730B840BD1
:10131000E3959A9572F7803830F49A95BB0F661F63
:10132000771F881FD2F7904893C1092E0394000CB1
:1013300011F4882352F0BB0F40F4BF2B11F460FF6F
:1013400004C06F5F7F4F8F4F9F4F0895EF93E0FF73
:1013500006C0A2EA2AED3FE049EC5FEB57DEE5DF8D
:101360000F90039401FC9058E4EEF0E084C157FD27
:101370009058440F551F59F05F3F71F04795880F03
:1013800097FB991F61F09F3F79F08795089512169A
:1013900013061406551FF2CF4695F1DF08C0161646
:1013A00017061806991FF1CF8695710561050894F7
:1013B0000895E894BB2766277727CB0197F908950E
:1013C00051DF08F48FEF08957ADF19F07FDF09F01D
:1013D00073CF6CCFB901CA0139C19F775F77C7DF7F
:1013E00098F39923B9F35523B9F3FF27951758F4C8
:1013F000E52FE91BED3070F75E3B10F0F1E41CC007
:101400009034E0F40AC0E92FE51BED3028F79E3B4D
:1014100010F0F1E411C0503488F4F9EA88232AF07E
:101420009A95660F771F881FDAF744232AF05A959A
:10143000220F331F441FDAF79F1B5F1BFF931F937D
:101440000F93FF92EF9279018A01BB27AB2F9B018B
:10145000AC015FD09701A801BF937B018C01AA2743
:10146000BA2FB901CA0155D0AF919701A801EF90E9
:10147000FF900F911F91CADD58DFAAD04F9140FF16
:101480000895552747FD509502C010CFDFC077DF84
:10149000E8F39923D9F3940F511DBBF391505040B9
:1014A00094F059F0882332F0660F771F881F91500F
:1014B0005040C1F79E3F510544F7880F911D969506
:1014C000879597F908955F3FACF0983E9CF0BB2755
:1014D000869577956795B79508F4B1609395C1F7B0
:1014E000BB0F58F711F460FFE8CF6F5F7F4F8F4F4E
:1014F0009F4FE3CF5FCF0BD018CFE1DE28F0E6DEC1
:1015000018F0952309F0D2CED7CE112453CF2FDF78
:10151000A0F3959FD1F3950F50E0551F629FF00106
:10152000729FBB27F00DB11D639FAA27F00DB11D5F
:10153000AA1F649F6627B00DA11D661F829F2227E8
:10154000B00DA11D621F739FB00DA11D621F839F6F
:10155000A00D611D221F749F3327A00D611D231F45
:10156000849F600D211D822F762F6A2F11249F5793
:1015700050408AF0E1F088234AF0EE0FFF1FBB1FB6
:10158000661F771F881F91505040A9F79E3F510555
:1015900070F08CCE0FCF5F3FECF3983EDCF3869576
:1015A00077956795B795F795E7959F5FC1F7FE2B00
:1015B000880F911D9695879597F908959F938EDED4
:1015C0000F9007FCEE5FC2CE11F40EF475CE3EC054
:1015D000D6DED0F39923D9F3CEF39F57550B87FF6F
:1015E00043D00024A0E640EA900180585695979594
:1015F00028F4805C660F771F881F20F026173707B6
:10160000480730F4621B730B840B202931294A2BC5
:10161000A69517940794202531254A2758F7660F79
:10162000771F881F20F026173707480730F4620B12
:10163000730B840B200D311D411DA09581F7B9015D
:10164000842F9158880F9695879508959F3F31F084
:10165000915020F4879577956795B795880F911DE0
:101660009695879597F9089591505040660F771F8A
:10167000881FD2F708959F938F937F936F93FF9363
:10168000EF939B01AC0137DFEF91FF9105D02F91D4
:101690003F914F915F912FCFDF93CF931F930F9384
:1016A000FF92EF92DF927B018C01689405C0DA2EE5
:1016B000EF012DDFFE01E894A5912591359145912B
:1016C0005591AEF3EF01A2DCFE019701A801DA9477
:1016D00079F7DF90EF90FF900F911F91CF91DF91FD
:1016E000089509D0A59F900DB49F900DA49F800DE3
:1016F000911D11240895A29FB001B39FC001A39F23
:10170000700D811D1124911DB29F700D811D11243A
:10171000911D08950F931F93CF93DF93823091050E
:1017200010F482E090E0E0914008F091410830E050
:1017300020E0B0E0A0E0309799F42115310509F4DC
:101740004AC0281B390B24303105D8F58A819B818A
:101750006115710589F1FB0193838283FE0111C03C
:10176000408151810281138148175907E0F04817E1
:10177000590799F4109761F012960C9312971396EB
:101780001C933296CF01DF91CF911F910F91089555
:101790000093400810934108F4CF2115310551F012
:1017A0004217530738F0A901DB019A01BD01DF019F
:1017B000F801C1CFEF01F9CF909341088093400821
:1017C000CDCFFE01E20FF31F819391932250310997
:1017D00039832883D7CF20913E0830913F08232BAF
:1017E00041F4209102023091030230933F0820938C
:1017F0003E0820910002309101022115310541F48B
:101800002DB73EB74091040250910502241B350BC1
:10181000E0913E08F0913F08E217F307A0F42E1B79
:101820003F0B2817390778F0AC014E5F5F4F241744
:10183000350748F04E0F5F1F50933F0840933E0816
:10184000819391939FCFF0E0E0E09CCFCF93DF9323
:101850000097E9F0FC01329713821282A0914008B0
:10186000B0914108ED0130E020E01097A1F4208113
:101870003181820F931F20913E0830913F08281735
:10188000390709F061C0F0933F08E0933E08DF910B
:10189000CF910895EA01CE17DF07E8F54A815B8111
:1018A0009E0141155105B1F7E901FB83EA83499196
:1018B0005991C40FD51FEC17FD0761F48081918108
:1018C0000296840F951FE901998388838281938111
:1018D0009B838A83F0E0E0E012968D919C911397B0
:1018E0000097B9F52D913C911197CD010296820F89
:1018F000931F20913E0830913F082817390739F689
:10190000309751F51092410810924008B0933F086B
:10191000A0933E08BCCFD383C28340815181840F02
:10192000951FC817D90761F44E5F5F4F8881998171
:10193000480F591F518340838A819B8193838283FF
:101940002115310509F0B0CFF0934108E09340082C
:101950009ECFFD01DC01C0CF13821282D7CFFB01E5
:10196000DC0102C001900D9241505040D8F708951B
:101970000F931F93CF93DF93CDB7DEB72E970FB69C
:10198000F894DEBF0FBECDBF8C01FA0186E08C83D8
:101990001A83098377FF02C060E070E86150710923
:1019A0007E836D83A901BF01CE01019651D04D8187
:1019B0005E8157FD0AC02F813885421753070CF40A
:1019C0009A01020F131FF80110822E960FB6F89499
:1019D000DEBF0FBECDBFDF91CF911F910F91089554
:1019E0000F931F93CF93DF93CDB7DEB72E970FB62C
:1019F000F894DEBF0FBECDBF8C01FA018EE08C8360
:101A00001A83098377FF02C060E070E861507109B2
:101A10007E836D83A901BF01CE01019619D04D814E
:101A20005E8157FD0AC02F813885421753070CF499
:101A30009A01020F131FF80110822E960FB6F89428
:101A4000DEBF0FBECDBFDF91CF911F910F910895E3
:101A50002F923F924F925F926F927F928F929F92BE
:101A6000AF92BF92CF92DF92EF92FF920F931F93AC
:101A7000CF93DF93CDB7DEB72B970FB6F894DEBFC9
:101A80000FBECDBF7C013B018A01FC01178216828B
:101A9000838181FFD0C1CE0101965C01F701938162
:101AA000F30193FD859193FF81913F01882309F410
:101AB00049C1853239F493FD859193FF81913F01AE
:101AC000853221F4B70190E0CFD1E8CF912C212CC1
:101AD000312CFFE1F31538F08B3211F190F48032A4
:101AE00009F1833229F137FC3CC020ED280F2A3060
:101AF00050F536FE20C08AE0989E200D1124922ECB
:101B000006C08D3291F0803371F7689430F8F3019C
:101B100093FD859193FF81913F018111DACF21C01F
:101B2000689431F8689432F8F2CF689433F8EFCFC4
:101B3000689434F8ECCFEAE02E9E200D1124222E7A
:101B4000689435F8E4CF8E3229F436FCFBC06894F3
:101B500036F8DDCF8C3619F4689437F8D8CF88364C
:101B6000B1F2982F9F7D95549330D8F0833691F140
:101B70008337B1F1833509F05EC02801F2E04F0EE2
:101B8000511CF801C080D180692D70E036FC02C084
:101B90006FEF7FEFC60152D14C01689437F8820194
:101BA0000AC00C5F1F4FFFE3F98388248394912CB4
:101BB0006501E89437F833FE2AC0522C8114910451
:101BC00059F5552009F46ACFB70180E290E04CD175
:101BD0005A94F7CFF801808189830E5F1F4FE5CFBC
:101BE0002801F2E04F0E511CF801C080D180692D10
:101BF00070E036FC02C06FEF7FEFC6012AD14C01C6
:101C00008201D7CFB70180E290E02ED12A94281428
:101C1000190409F0B8F7D1CFF60137FC859137FEEA
:101C200081916F01B70190E01FD151105A94F1E0FA
:101C30008F1A9108C3CF843619F0893609F073C022
:101C4000F80137FE67C060817181828193810C5FEA
:101C50001F4FF32DFF763F2E97FF09C0909580957B
:101C6000709561957F4F8F4F9F4F689437F82AE0AA
:101C700030E0A50129D1C82ECA188C2C432C36FE81
:101C80000CC0E89440F8C91440F434FE05C032FC9E
:101C900003C0F32DFE7E4F2E892C44FEA6C0FE010C
:101CA000EC0DF11D8081803309F098C0242D297E30
:101CB000422E842D8870582E43FCA5C040FE9FC044
:101CC0009C2C821418F42C0C922C981844FEA1C061
:101CD000B70180E390E0C8D042FE08C088E790E0FA
:101CE00041FE02C088E590E0B701BED0C91408F4F7
:101CF0009CC0CA94D12C9FEFC91AD90ACA0CDB1C0C
:101D0000F60182916F01B70190E0AED0AC14BD0432
:101D1000B9F757CF60817181072E000C880B990BA2
:101D20000E5F1F4F96CFD32CE894D4F82AE030E012
:101D30008537E1F1232D297FD22E8F36A9F1F0F4DA
:101D4000883551F1F701868197812B960FB6F8946B
:101D5000DEBF0FBECDBFDF91CF911F910F91FF90DE
:101D6000EF90DF90CF90BF90AF909F908F907F903B
:101D70006F905F904F903F902F900895803749F07B
:101D8000883701F7D4FE02C06894D2F820E130E031
:101D90000DC06894D4F8F6CF34FE03C0822F86605D
:101DA000D82E20E132E002C028E030E0F801D7FE72
:101DB0000EC060817181828193810C5F1F4FA501EC
:101DC00083D0C82ECA183D2CE89437F856CF6081CE
:101DD000718190E080E00E5F1F4FF1CF42FC02C0A6
:101DE000839467CF8394839464CF842D867809F499
:101DF00060CFF6CFB70180E290E036D083948214B2
:101E0000C8F3512C63CF522C5818821408F45ECFBB
:101E1000F8CF842D867809F469CF8BE241FE80E209
:101E200047FC8DE2B70190E060CFB70180E390E01E
:101E30001BD09A945BCF8FEF9FEF87CFFC0105906B
:101E4000615070400110D8F7809590958E0F9F1FBC
:101E50000895FC016150704001900110D8F7809501
:101E600090958E0F9F1F08950F931F93CF93DF932D
:101E7000182F092FEB018B8181FD09C01FEF0FEF98
:101E8000812F902FDF91CF911F910F91089582FFA5
:101E900014C02E813F818C819D81281739073CF425
:101EA000E881F981CF0101969983888310838E811F
:101EB0009F8101969F838E83E3CFE885F985812FEB
:101EC0000995892BA1F3DACFFA01AA27283051F11D
:101ED000203181F1E8946F936E7F6E5F7F4F8F4F5B
:101EE0009F4FAF4FB1E03ED0B4E03CD0670F781FBA
:101EF000891F9A1FA11D680F791F8A1F911DA11D9F
:101F00006A0F711D811D911DA11D20D009F46894D7
:101F10003F912AE0269F11243019305D3193DEF67F
:101F2000CF010895462F4770405D4193B3E00FD035
:101F3000C9F7F6CF462F4F70405D4A3318F0495D20
:101F400031FD4052419302D0A9F7EACFB4E0A69503
:101F50009795879577956795BA95C9F70097610525
:101F6000710508959B01AC010A2E0694579547957B
:101F700037952795BA95C9F7620F731F841F951F70
:081F8000A01D0895F894FFCFA5
:101F8800000042082000FFFF050000803F0000FF1E
:101F9800FF0000484300000000DB0FC93F72656383
:101FA800656976656420257520627974657300001B
:00000001FF
